:100000000C943F000C9467000C9467000C946700FC
:100010000C9467000C9467000C9467000C946700C4
:100020000C9467000C9467000C9467000C946700B4
:100030000C9467000C9467000C9467000C946700A4
:100040000C9467000C9467000C9485010C94670075
:100050000C94F5010C94CF010C9467000C9467008C
:100060000C9467000C9467000C9467000C94670074
:100070000C9467000C9467000C946700C402112470
:100080001FBECFEFD0E1DEBFCDBF11E0A0E0B1E0F9
:10009000ECEFF5E002C005900D92AA31B107D9F757
:1000A00021E0AAE1B1E001C01D92A03CB207E1F756
:1000B00010E0CFE3D0E004C02197FE010E94F102DE
:1000C000CE33D107C9F70E9427020C94FC020C948E
:1000D0000000CF92DF92EF92FF920F931F93CF9386
:1000E000DF936C017A018B01C0E0D0E0CE15DF0513
:1000F00089F0D8016D918D01D601ED91FC910190AF
:10010000F081E02DC6010995892B11F47E0102C012
:100110002196ECCFC701DF91CF911F910F91FF90F6
:10012000EF90DF90CF900895FC01918D828D98170C
:1001300061F0828DDF01A80FB11D5D968C91928DCB
:100140009F5F9F73928F90E008958FEF9FEF0895C8
:10015000FC01918D828D981731F0828DE80FF11D91
:10016000858D90E008958FEF9FEF0895FC01918DAC
:10017000228D892F90E0805C9F4F821B91098F73A5
:100180009927089583E291E00E94B60021E0892B2F
:1001900009F420E0822F0895FC01848DDF01A80F6F
:1001A000B11DA35ABF4F2C91848D90E001968F739F
:1001B0009927848FA689B7892C93A089B1898C91BE
:1001C00080648C93938D848D981306C00288F38984
:1001D000E02D80818F7D80830895EF92FF920F93B1
:1001E0001F93CF93DF93EC0181E0888F9B8D8C8DE3
:1001F000981305C0E889F989808185FD24C0F62E11
:100200000B8D10E00F5F1F4F0F731127E02E8C8DA9
:10021000E8120CC00FB607FCFACFE889F989808193
:1002200085FFF5CFCE010E94CC00F1CF8B8DFE0172
:10023000E80FF11DE35AFF4FF0820B8FEA89FB892B
:100240008081806207C0EE89FF896083E889F9892F
:1002500080818064808381E090E0DF91CF911F9165
:100260000F91FF90EF900895CF93DF93EC01888D6D
:100270008823C9F0EA89FB89808185FD05C0A889AA
:10028000B9898C9186FD0FC00FB607FCF5CF808130
:1002900085FFF2CFA889B9898C9185FFEDCFCE017A
:1002A0000E94CC00E7CFDF91CF91089580E090E0ED
:1002B000892B21F00E94C20081110DC080E090E0E6
:1002C000892B71F080E090E0892B51F00E940000B2
:1002D000811104C008950E940000F0CF0C9400002A
:1002E0000895009769F0FC0101900020E9F731972B
:1002F000AF01481B590BBC0183E291E00C946900EB
:1003000080E090E008950E94F7021F920F920FB6CE
:100310000F9211242F933F938F939F93AF93BF938B
:1003200080911F0190912001A0912101B0912201A3
:1003300030911E0123E0230F2D3720F40196A11DDB
:10034000B11D05C026E8230F0296A11DB11D209303
:100350001E0180931F0190932001A0932101B0936F
:10036000220180911A0190911B01A0911C01B09172
:100370001D010196A11DB11D80931A0190931B01CF
:10038000A0931C01B0931D01BF91AF919F918F91DC
:100390003F912F910F900FBE0F901F9018951F92B5
:1003A0000F920FB60F9211242F933F934F935F93A9
:1003B0006F937F938F939F93AF93BF93EF93FF932D
:1003C00083E291E00E94CC00FF91EF91BF91AF9149
:1003D0009F918F917F916F915F914F913F912F915D
:1003E0000F900FBE0F901F9018951F920F920FB68F
:1003F0000F9211242F938F939F93EF93FF93E0918C
:100400003301F09134018081E0913901F0913A019A
:1004100082FD12C0908180913C018F5F8F7320918B
:100420003D01821751F0E0913C01F0E0ED5DFE4F9F
:10043000958F80933C0101C08081FF91EF919F9146
:100440008F912F910F900FBE0F901F901895CF9303
:10045000DF931F92CDB7DEB7789484B5826084BDF8
:1004600084B5816084BD85B5826085BD85B58160B8
:1004700085BD80916E00816080936E001092810036
:1004800080918100826080938100809181008160F1
:1004900080938100809180008160809380008091B2
:1004A000B10084608093B1008091B000816080933E
:1004B000B00080917A00846080937A0080917A0005
:1004C000826080937A0080917A00816080937A00C4
:1004D00080917A00806880937A001092C100E09148
:1004E0003301F091340182E08083E0912F01F0919B
:1004F00030011082E0913101F091320180E180837E
:1005000010923B01E0913701F091380186E0808341
:10051000E0913501F0913601808180618083E09126
:100520003501F0913601808188608083E09135014A
:10053000F0913601808180688083E0913501F091EF
:10054000360180818F7D808383E291E00E94B60036
:10055000892BB9F083E291E00E949400682F80E13A
:1005600091E069830E947101698183E291E00E94B8
:10057000ED0085E191E00E94710187E191E00E9428
:1005800071010E945601E0CFE3E2F1E01382128292
:1005900088EE93E0A0E0B0E084839583A683B783E0
:1005A00084E091E09183808385EC90E09587848757
:1005B00084EC90E09787868780EC90E0918B808B2D
:1005C00081EC90E0938B828B82EC90E0958B848B16
:1005D00086EC90E0978B868B118E128E138E148E84
:1005E0000895EE0FFF1F0590F491E02D099481E02E
:0C05F00090E0F8940C94FC02F894FFCF0B
:1005FC0000000000ED006900B6009400A800340172
:0A060C004920676F7420000D0A00FA
:00000001FF
