:100000000C943F000C9467000C9467000C946700FC
:100010000C9467000C9467000C9467000C946700C4
:100020000C9467000C9467000C9467000C946700B4
:100030000C9467000C9467000C9467000C946700A4
:100040000C9467000C9467000C946D030C9467008B
:100050000C9491000C9467000C9467000C9467005A
:100060000C9467000C9467000C9467000C94670074
:100070000C94C2000C9467000C946700C901112411
:100080001FBECFEFD0E1DEBFCDBF11E0A0E0B1E0F9
:10009000E4E6F8E002C005900D92AC31B107D9F763
:1000A00012E0ACE1B1E001C01D92A335B107E1F768
:1000B00010E0CEE7D0E004C02297FE010E942C049D
:1000C000CC37D107C9F70E9435020C9430040C9448
:1000D00000001F9384E292E00E945B01892BB1F043
:1000E00084E292E00E948601182F84E292E060E0B0
:1000F00071E00E94730284E292E0612F0E94B601D7
:1001000084E292E067E071E00E9462031F9108952B
:1001100084E292E040E052EC61E070E00E94F30083
:1001200008951F920F920FB60F9211242F933F93B1
:100130004F938F939F93EF93FF934091C600E0916D
:100140009C01F0919D0131969F012F77307031977E
:1001500080919E0190919F012817390739F0E45E44
:10016000FE4F408330939D0120939C01FF91EF91BE
:100170009F918F914F913F912F910F900FBE0F90B4
:100180001F9018951F920F920FB60F9211242F9364
:100190003F934F938F939F93EF93FF934091CE00A4
:1001A000E0912002F091210231969F012F7730706B
:1001B000319780912202909123022817390739F054
:1001C000E056FE4F40833093210220932002FF919E
:1001D000EF919F918F914F913F912F910F900FBE73
:1001E0000F901F901895EF92FF920F931F938C0121
:1001F0009A01AB01DC011896ED91FC91199781E011
:10020000E82EF12CC70152960C9002C0880F991F5E
:100210000A94E2F7808360E47BE48CE490E00E943F
:100220000F042150304040405040CA01B90122E043
:1002300030E040E050E00E940F04D8011496ED91A8
:10024000FC91159730831696ED91FC9117972083BA
:100250001A96ED91FC911B972081C7011E960C9078
:100260001E9702C0880F991F0A94E2F7282B20835B
:100270001A96ED91FC911B972081C7011F960C9057
:100280001F9702C0880F991F0A94E2F7282B20833A
:100290001A96ED91FC911B97808150960C9002C0AC
:1002A000EE0CFF1C0A94E2F78E2980831F910F91B8
:1002B000FF90EF900895DC011296ED91FC91139759
:1002C000E058FF4F2191319180819181281B390B9A
:1002D0002F773070C9010895DC011296ED91FC91E1
:1002E0001397EE57FF4F2081318192918291E05810
:1002F000F0408217930719F42FEF3FEF05C0E20F8C
:10030000F31F8081282F30E0C9010895DC01129687
:10031000ED91FC911397DF01AE57BF4F2D913C91AA
:100320001197E058FF4F80819181E058F04082178B
:10033000930719F42FEF3FEF0BC0E20FF31F8081FB
:100340002F5F3F4F2F7730702D933C93282F30E055
:10035000C9010895DC011296ED91FC911397EE57B7
:10036000FF4F80819181929382930895FC01A08533
:10037000B18521898C9190E0022E02C095958795D8
:100380000A94E2F780FFF6CF0484F585E02D6083C0
:1003900008952DE031E030932502209324028CE172
:1003A00091E0909327028093260285EC90E0909351
:1003B00029028093280284EC90E090932B02809392
:1003C0002A0280EC90E090932D0280932C0281EC25
:1003D00090E090932F0280932E0286EC90E0909311
:1003E000310280933002E4E0E093320273E07093D4
:1003F000330267E06093340255E05093350241E0E8
:1004000040933602309338022093370280EA91E01D
:1004100090933A02809339028DEC90E090933C02E5
:1004200080933B028CEC90E090933E0280933D02DF
:1004300088EC90E09093400280933F0289EC90E03A
:1004400090934202809341028EEC90E0909344029C
:1004500080934302E0934502709346026093470203
:10046000509348024093490208950E94B2030E94AB
:1004700088000E946900FDCF0F931F93CF93DF93F5
:100480008C01EB0109C02196D801ED91FC910190FE
:10049000F081E02DC801099568816623A1F7DF91FD
:1004A000CF911F910F910895EF92FF920F931F9399
:1004B000CF93DF938C017B01EA010CC0D7016D91D2
:1004C0007D01D801ED91FC910190F081E02DC801F2
:1004D00009952197209791F7DF91CF911F910F9167
:1004E000FF90EF900895DC01ED91FC910280F38183
:1004F000E02D099508952F923F924F925F926F924F
:100500007F928F929F92AF92BF92CF92DF92EF92A3
:10051000FF920F931F93DF93CF93CDB7DEB7A097D2
:100520000FB6F894DEBF0FBECDBF1C016A017B0180
:10053000411551056105710549F440E350E060E063
:1005400070E020E030E00E94150356C08824992412
:100550005401422E55246624772401E010E00C0F4C
:100560001D1F080D191DC701B601A30192010E94AC
:10057000ED03F80160830894811C911CA11CB11C3F
:10058000C701B601A30192010E94ED03C901DA017E
:100590006C017D01C114D104E104F104F1F681E0A4
:1005A000E82EF12CEC0EFD1EE80CF91C3E0108941F
:1005B000611C711CD501C4010197A109B1096C012D
:1005C000C818D90816C0F601EE0DFF1D40814A304B
:1005D00010F4405D01C0495C552747FD5095652FDB
:1005E000752FC10120E030E00E9415030894E10856
:1005F000F1086E147F0439F7A0960FB6F894DEBFA9
:100600000FBECDBFCF91DF911F910F91FF90EF9063
:10061000DF90CF90BF90AF909F908F907F906F9022
:100620005F904F903F902F900895EF92FF920F931D
:100630001F93CF93DF93EC017A018B0121153105D4
:1006400041F4E881F9810190F081E02D642F099552
:100650001BC02A303105B1F477FF10C04DE250E0E5
:1006600060E070E020E030E00E94150310950095F6
:10067000F094E094E11CF11C011D111DCE01B801A4
:10068000A7012AE00E947B02DF91CF911F910F9179
:10069000FF90EF9008950F931F938C014DE050E071
:1006A00060E070E020E030E00E941503C8014AE0FD
:1006B00050E060E070E020E030E00E9415031F9100
:1006C0000F9108950F931F938C010E947302C8012C
:1006D0000E944B031F910F9108951F920F920FB626
:1006E0000F9211242F933F938F939F93AF93BF93B8
:1006F00080914E0290914F02A0915002B091510210
:1007000030915202232F2A592D3720F02D57019670
:10071000A11DB11D2093520280934E0290934F026F
:10072000A0935002B093510280914A0290914B02E3
:10073000A0914C02B0914D020196A11DB11D809374
:100740004A0290934B02A0934C02B0934D02BF918A
:10075000AF919F918F913F912F910F900FBE0F906E
:100760001F901895789484B5826084BD84B58160AB
:1007700084BD85B5826085BD85B5816085BDEEE6A9
:10078000F0E0808181608083E1E8F0E01082808188
:1007900082608083808181608083E0E8F0E08081F6
:1007A00081608083E1EBF0E0808184608083E0EB16
:1007B000F0E0808181608083EAE7F0E080818460FE
:1007C000808380818260808380818160808380815A
:1007D000806880831092C1000895A1E21A2EAA1B9E
:1007E000BB1BFD010DC0AA1FBB1FEE1FFF1FA217E1
:1007F000B307E407F50720F0A21BB30BE40BF50BDE
:10080000661F771F881F991F1A9469F76095709566
:10081000809590959B01AC01BD01CF01089597FB98
:10082000092E05260ED057FD04D0D7DF0AD0001CB4
:1008300038F450954095309521953F4F4F4F5F4F7D
:100840000895F6F790958095709561957F4F8F4F3D
:100850009F4F0895EE0FFF1F0590F491E02D09942E
:04086000F894FFCF3A
:100864004920676F742000200000000000B6013C9E
:0C0874000254025B0186016C01AA010025
:00000001FF
