:1000000028C04CC0C5C14AC049C078C147C046C01D
:1000100045C044C043C042C041C040C03FC00000D2
:10002000000037000000000036000000000038002B
:10003000020202020202020202020102040810206D
:100040002004100801020000040000000000E1028A
:10005000830311241FBECFE5D2E0DEBFCDBF10E089
:10006000A0E6B0E0E2E9F7E002C005900D92A83802
:10007000B107D9F720E0A8E8B0E001C01D92A43F85
:10008000B207E1F710E0C8E2D0E003C02197FE011B
:100090006AD3C732D107D1F7F5D16FC3B1CFCF92B1
:1000A000DF92EF92FF920F931F93CF93DF936C0138
:1000B0007A018B01C0E0D0E0CE15DF0589F0D801D0
:1000C0006D918D01D601ED91FC910190F081E02DB3
:1000D000C6010995892B11F47E0102C02196ECCF4F
:1000E000C701DF91CF911F910F91FF90EF90DF90AB
:1000F000CF90089590E0FC01EC5BFF4F3491FC0140
:10010000E65CFF4F2491FC01E05DFF4FE491EE239C
:1001100039F1332399F0323071F028F4313071F431
:100120008AB58F770AC0333011F0343039F48CB58A
:100130008F7D8CBD03C08AB58F7D8ABDF0E0EE0F48
:10014000FF1FE65DFF4FA591B4918FB7F894EC9136
:10015000611103C020952E2301C02E2B2C938FBF3D
:1001600008952091CA003091CB002817390771F407
:100170009091C8008091C900981741F0E091C800A3
:10018000F0E0E857FF4F808190E008958FEF9FEFF8
:10019000089508951F93CF93DF93DC015C962D9112
:1001A0003C915D972115310539F481E090E013967B
:1001B0009C938E9312973DC05196ED91FC9152976E
:1001C00050969C915097892F80951FB75E964C91C1
:1001D0005E9741FB772770F941FD6095F894408167
:1001E000772311F0492B01C048234083E90121976F
:1001F000F1F748E0508160FF02C0592B01C058233D
:100200005083E9012197F1F76695415099F77723DB
:1002100021F090818923808303C08081982B908373
:100220001FBF5C968D919C915D970197F1F721E03E
:1002300030E0C901DF91CF911F9108952091CA004C
:100240003091CB002817390769F48091C9002091BB
:10025000C80090E0805C9F4F821B910960E470E0D1
:100260005BD2089580E090E008952091CA0030911B
:10027000CB0028173907B9F49091C8008091C900C4
:10028000981789F0E091C800F0E0E857FF4F8081AF
:100290002091C80030E02F5F3F4F2F73332720930A
:1002A000C80090E008958FEF9FEF0895E091CA0095
:1002B000F091CB00E817F90769F4A389B4899C9100
:1002C0008589809589238C931092CB001092CA0067
:1002D00081E0089580E00895009761F0FC010190AD
:1002E0000020E9F73197AF01481B590BBC0185EDA0
:1002F00090E0D5CE80E090E008953BD21F920F921F
:100300000FB60F9211242F933F938F939F93AF9328
:10031000BF938091D1009091D200A091D300B09171
:10032000D4003091D00026E0230F2D3720F4029620
:10033000A11DB11D05C029E8230F0396A11DB11D04
:100340002093D0008093D1009093D200A093D3004B
:10035000B093D4008091CC009091CD00A091CE00BC
:10036000B091CF000196A11DB11D8093CC00909358
:10037000CD00A093CE00B093CF00BF91AF919F91DD
:100380008F913F912F910F900FBE0F901F90189556
:100390001F920F920FB60F9211242F933F934F93FA
:1003A0005F936F937F938F939F93AF93BF93EF93DD
:1003B000FF93E091CA00F091CB00309709F451C04F
:1003C000968DA685B785858591FF04C09C9189236C
:1003D00029F447C09C91892309F043C0A389B489BB
:1003E0009C918589809589238C938689978901972B
:1003F000F1F7608D718DA685B785558538E020E0D1
:10040000CB010197F1F7822F90E095958795282FE2
:100410004C91452309F02068315091F7868D81FD7C
:1004200020958091C90090E001968F7399273091B3
:10043000C800381749F0A091C900B0E0A857BF4FD5
:100440002C938093C90003C0868D8160868F828D36
:10045000938D0197F1F7A389B4899C918589892BA4
:100460008C93FF91EF91BF91AF919F918F917F916D
:100470006F915F914F913F912F910F900FBE0F9011
:100480001F90189578948AB582608ABD8AB581607C
:100490008ABD83B7826083BF83B7816083BF89B71A
:1004A000826089BF80B7826080BF80B7816080BF73
:1004B000329A319A3098379A8CB580648CBD1092FC
:1004C000F0001092EF001092EE001092ED001092EA
:1004D000EC001092EB008FE190E09093F20080939B
:1004E000F1004091E100453010F521E02093EB0050
:1004F0001092EC006DE170E07093EE006093ED00FF
:100500006DE070E07093F0006093EF003BB73062F5
:100510003BBF65E370E07093E9006093E80001C0C1
:10052000220F4A95EAF72093EA000197F1F78091AC
:10053000EF009091F000892B19F18091CA00909101
:10054000CB0020E0853D9207D9F0009709F0AEDEA0
:100550008091F3008E7F8093F3001092C900109277
:10056000C80085ED90E09093CB008093CA00E091A5
:10057000E800F091E90090818091EA00892B808366
:1005800080E790E0A9DE8EE790E0A6DEC0E0D0E054
:1005900085ED90E053DE892B81F081E890E09CDED0
:1005A00085ED90E062DE682F85ED90E0F3DD86E872
:1005B00090E092DE8EE790E08FDE209749F320DD19
:1005C000E7CFCF93DF931092D8001092D70088EE38
:1005D00093E0A0E0B0E08093D9009093DA00A0937C
:1005E000DB00B093DC0084E690E09093D60080932B
:1005F000D5001092EC001092EB001092EE001092D9
:10060000ED001092F0001092EF001092F2001092A4
:10061000F1006091F3006E7F6D7F6093F30066954B
:10062000617081E0682783E065DDEDE3F0E024910F
:10063000E3E3F0E08491882399F090E0880F991F1C
:10064000FC01E25EFF4FA591B491FC01E65DFF4F16
:10065000859194918FB7F894EC91E22BEC938FBF36
:10066000EDE3F0E0E491E093E500E3E3F0E0E49112
:10067000F0E0EE0FFF1FE65DFF4F859194919093A0
:10068000E7008093E600EEE3F0E02491E4E3F0E09D
:1006900084918823C1F090E0880F991FFC01E25EED
:1006A000FF4FC591D491FC01E65DFF4FA591B49138
:1006B0009FB7F8948881E22FE0958E2388838C91F0
:1006C000E823EC939FBF8091F30081FD03C061E0BC
:1006D00084E010DD84E08093E100EEE3F0E0E4915B
:1006E000E093E200E4E3F0E0E491F0E0EE0FFF1FBE
:1006F000EC5DFF4F859194919093E4008093E3002B
:10070000DF91CF91089584E690E09093D600809396
:10071000D50085ED90E0CACD97FB072E16F4009426
:1007200006D077FD08D00BD007FC05D03EF490959D
:1007300081959F4F0895709561957F4F0895AA1BED
:10074000BB1B51E107C0AA1FBB1FA617B70710F0BC
:10075000A61BB70B881F991F5A95A9F780959095EE
:10076000BC01CD010895EE0FFF1F0590F491E02D1F
:10077000099481E090E0F89400C010E0C8E2D0E075
:1007800003C0FE01F0DF2196C932D107D1F7F894FA
:02079000FFCF99
:1007920000000000CA004F001E013501B100C9006F
:1007A20048656C6C6F2C20776F726C643F000D0A89
:0807B200004920676F7420006C
:00000001FF
