:1000000028C04CC0D1C14AC049C084C147C046C005
:1000100045C044C043C042C041C040C03FC00000D2
:10002000000037000000000036000000000038002B
:10003000020202020202020202020102040810206D
:100040002004100801020000040000000000EC027F
:100050008E0311241FBECFE5D2E0DEBFCDBF10E07E
:10006000A0E6B0E0E8EAF7E002C005900D92A03902
:10007000B107D9F720E0A0E9B0E001C01D92AC3F84
:10008000B207E1F710E0C8E2D0E003C02197FE011B
:1000900075D3C732D107D1F701D27AC3B1CFCF928E
:1000A000DF92EF92FF920F931F93CF93DF936C0138
:1000B0007A018B01C0E0D0E0CE15DF0589F0D801D0
:1000C0006D918D01D601ED91FC910190F081E02DB3
:1000D000C6010995892B11F47E0102C02196ECCF4F
:1000E000C701DF91CF911F910F91FF90EF90DF90AB
:1000F000CF90089590E0FC01EC5BFF4F3491FC0140
:10010000E65CFF4F2491FC01E05DFF4FE491EE239C
:1001100039F1332399F0323071F028F4313071F431
:100120008AB58F770AC0333011F0343039F48CB58A
:100130008F7D8CBD03C08AB58F7D8ABDF0E0EE0F48
:10014000FF1FE65DFF4FA591B4918FB7F894EC9136
:10015000611103C020952E2301C02E2B2C938FBF3D
:1001600008952091D2003091D3002817390771F4F7
:100170009091D0008091D100981741F0E091D0008B
:10018000F0E0E057FF4F808190E008958FEF9FEF00
:10019000089508951F93CF93DF93DC015C962D9112
:1001A0003C915D972115310539F481E090E013967B
:1001B0009C938E9312973DC05196ED91FC9152976E
:1001C00050969C915097892F80951FB75E964C91C1
:1001D0005E9741FB772770F941FD6095F894408167
:1001E000772311F0492B01C048234083E90121976F
:1001F000F1F748E0508160FF02C0592B01C058233D
:100200005083E9012197F1F76695415099F77723DB
:1002100021F090818923808303C08081982B908373
:100220001FBF5C968D919C915D970197F1F721E03E
:1002300030E0C901DF91CF911F9108952091D20044
:100240003091D3002817390769F48091D1002091AB
:10025000D00090E0805C9F4F821B910960E470E0C9
:1002600066D2089580E090E008952091D200309108
:10027000D30028173907B9F49091D0008091D100AC
:10028000981789F0E091D000F0E0E057FF4F8081AF
:100290002091D00030E02F5F3F4F2F733327209302
:1002A000D00090E008958FEF9FEF0895E091D20085
:1002B000F091D300E817F90769F4A389B4899C91F8
:1002C0008589809589238C931092D3001092D20057
:1002D00081E0089580E00895009761F0FC010190AD
:1002E0000020E9F73197AF01481B590BBC018DED98
:1002F00090E0D5CE80E090E00895CF93DF93ECDFDF
:10030000EC0180E790E0E8DF8C0F9D1FDF91CF913B
:1003100008953AD21F920F920FB60F9211242F9385
:100320003F938F939F93AF93BF938091D900909108
:10033000DA00A091DB00B091DC003091D80026E01B
:10034000230F2D3720F40296A11DB11D05C029E809
:10035000230F0396A11DB11D2093D8008093D900CF
:100360009093DA00A093DB00B093DC008091D4007E
:100370009091D500A091D600B091D7000196A11D13
:10038000B11D8093D4009093D500A093D600B09374
:10039000D700BF91AF919F918F913F912F910F9077
:1003A0000FBE0F901F9018951F920F920FB60F92CD
:1003B00011242F933F934F935F936F937F938F936A
:1003C0009F93AF93BF93EF93FF93E091D200F0918F
:1003D000D300309709F451C0968DA685B7858585E1
:1003E00091FF04C09C91892329F447C09C918923E3
:1003F00009F043C0A389B4899C918589809589239C
:100400008C93868997890197F1F7608D718DA68508
:10041000B785558538E020E0CB010197F1F7822FB1
:1004200090E095958795282F4C91452309F02068F9
:10043000315091F7868D81FD20958091D10090E01B
:1004400001968F7399273091D000381749F0A09109
:10045000D100B0E0A057BF4F2C938093D10003C0D0
:10046000868D8160868F828D938D0197F1F7A389A8
:10047000B4899C918589892B8C93FF91EF91BF91D1
:10048000AF919F918F917F916F915F914F913F912C
:100490002F910F900FBE0F901F90189578948AB5EA
:1004A00082608ABD8AB581608ABD83B7826083BF5E
:1004B00083B7816083BF89B7826089BF80B782605C
:1004C00080BF80B7816080BF329A319A3098379A66
:1004D0008CB580648CBD1092F8001092F7001092D9
:1004E000F6001092F5001092F4001092F3008DECDB
:1004F00090E09093FA008093F9003091E900353054
:1005000020F545E550E05093F4004093F3004BECA8
:1005100050E05093F6004093F50040E950E05093CE
:10052000F8004093F7002BB720622BBF45E350E063
:100530005093F1004093F00021E001C0220F3A9562
:10054000EAF72093F2000197F1F78091F70090917C
:10055000F800892B19F18091D2009091D30020E00E
:100560008D3D9207D9F0009709F0A0DE8091FB0045
:100570008E7F8093FB001092D1001092D0008DED01
:1005800090E09093D3008093D200E091F000F0913E
:10059000F10090818091F200892B808383E790E0C5
:1005A000ACDEC0E0D0E08DED90E048DE892B69F054
:1005B00081E890E091DE8DED90E057DE682F8DEDC3
:1005C00090E0E8DD86E890E098DE88E890E095DE4F
:1005D000209749F315DDE7CFCF93DF931092E0002A
:1005E0001092DF0088EE93E0A0E0B0E08093E1009D
:1005F0009093E200A093E300B093E40084E690E0DF
:100600009093DE008093DD001092F4001092F300CE
:100610001092F6001092F5001092F8001092F70078
:100620001092FA001092F9006091FB006E7F6D7FCE
:100630006093FB006695617081E0682783E05ADD76
:10064000EDE3F0E02491E3E3F0E08491882399F076
:1006500090E0880F991FFC01E25EFF4FA591B491D5
:10066000FC01E65DFF4F859194918FB7F894EC9172
:10067000E22BEC938FBFEDE3F0E0E491E093ED002B
:10068000E3E3F0E0E491F0E0EE0FFF1FE65DFF4FE3
:10069000859194919093EF008093EE00EEE3F0E06B
:1006A0002491E4E3F0E084918823C1F090E0880F86
:1006B000991FFC01E25EFF4FC591D491FC01E65DFC
:1006C000FF4FA591B4919FB7F8948881E22FE095F0
:1006D0008E2388838C91E823EC939FBF8091FB004D
:1006E00081FD03C061E084E005DD84E08093E900E2
:1006F000EEE3F0E0E491E093EA00E4E3F0E0E4917B
:10070000F0E0EE0FFF1FEC5DFF4F85919491909309
:10071000EC008093EB00DF91CF91089584E690E0A8
:100720009093DE008093DD008DED90E0BFCD97FBD0
:10073000072E16F4009406D077FD08D00BD007FCE6
:1007400005D03EF4909581959F4F089570956195E1
:100750007F4F0895AA1BBB1B51E107C0AA1FBB1FF7
:10076000A617B70710F0A61BB70B881F991F5A953D
:10077000A9F780959095BC01CD010895EE0FFF1F5C
:100780000590F491E02D099481E090E0F89400C088
:1007900010E0C8E2D0E003C0FE01F0DF2196C932CC
:0807A000D107D1F7F894FFCF57
:1007A80000000000CA004F001E013501B100C90059
:1007B8000D0A0048656C6C6F2C20776F726C643F73
:1007C800004920676F74200077616974696E67005B
:00000001FF
