:100000000C943F000C9467000C9467000C946700FC
:100010000C9467000C9467000C9467000C946700C4
:100020000C9467000C9467000C9467000C946700B4
:100030000C9467000C9467000C9467000C946700A4
:100040000C9467000C9467000C949D000C9467005E
:100050000C9487010C9467000C9467000C94670063
:100060000C9467000C9467000C9467000C94670074
:100070000C94B8010C9467000C946700BF02112423
:100080001FBECFEFD0E1DEBFCDBF11E0A0E0B1E0F9
:10009000E0E5F9E002C005900D92AE31B107D9F765
:1000A00012E0AEE1B1E001C01D92A535B107E1F764
:1000B00010E0CEE7D0E004C02297FE010E94A20427
:1000C000CC37D107C9F70E942B030C94A6040C94DB
:1000D00000001F9382E492E060E071E00E94580407
:1000E00082E492E00E945102892BE1F082E492E0E6
:1000F0000E947C02182F82E492E063E071E00E948B
:10010000690382E492E0612F0E94AC0282E492E0F3
:100110006AE071E00E94580468EE73E080E090E0CD
:100120000E94E2001F91089582E492E040E052ECC8
:1001300061E070E00E94E90108951F920F920FB6EE
:100140000F9211242F933F938F939F93AF93BF935D
:100150008091220190912301A0912401B091250169
:1001600030912601232F2A592D3720F02D57019643
:10017000A11DB11D2093260180932201909323019C
:10018000A0932401B093250180911E0190911F013D
:10019000A0912001B09121010196A11DB11D809374
:1001A0001E0190931F01A0932001B0932101BF91E4
:1001B000AF919F918F913F912F910F900FBE0F9014
:1001C0001F901895EF92FF920F931F937B018C0164
:1001D0009FB7F89420911E0130911F01409120019A
:1001E0005091210186B5A89B06C08F3F21F02F5F5B
:1001F0003F4F4F4F5F4F9FBF542F432F322F222728
:10020000280F311D411D511DDA01C901880F991FA9
:10021000AA1FBB1F820F931FA41FB51FBC0132C0B2
:100220009FB7F89420911E0130911F014091200149
:100230005091210186B5A89B06C08F3F21F02F5F0A
:100240003F4F4F4F5F4F9FBF542F432F322F2227D7
:10025000280F311D411D511DDA01C901880F991F59
:10026000AA1FBB1F820F931FA41FB51F861B970BCE
:10027000885E9340A8F20894E108F1080109110989
:1002800068517C4FE114F1040105110549F61F91F5
:100290000F91FF90EF900895789484B5826084BDAB
:1002A00084B5816084BD85B5826085BD85B581607A
:1002B00085BDEEE6F0E0808181608083E1E8F0E0DA
:1002C0001082808182608083808181608083E0E809
:1002D000F0E0808181608083E1EBF0E080818460E8
:1002E0008083E0EBF0E0808181608083EAE7F0E0EA
:1002F000808184608083808182608083808181604E
:1003000080838081806880831092C10008951F924D
:100310000F920FB60F9211242F933F934F938F9309
:100320009F93EF93FF934091C600E091A701F09156
:10033000A80131969F012F77307031978091A901E4
:100340009091AA012817390739F0E95DFE4F4083E3
:100350003093A8012093A701FF91EF919F918F9176
:100360004F913F912F910F900FBE0F901F901895B6
:100370001F920F920FB60F9211242F933F934F931A
:100380008F939F93EF93FF934091CE00E0912B02C8
:10039000F0912C0231969F012F7730703197809128
:1003A0002D0290912E022817390739F0E555FE4F9E
:1003B000408330932C0220932B02FF91EF919F9169
:1003C0008F914F913F912F910F900FBE0F901F90E3
:1003D0001895EF92FF920F931F938C019A01AB0136
:1003E000DC011896ED91FC91199781E0E82EF12C33
:1003F000C70152960C9002C0880F991F0A94E2F729
:10040000808360E47BE48CE490E00E9485042150CA
:10041000304040405040CA01B90122E030E040E0A5
:1004200050E00E948504D8011496ED91FC91159737
:1004300030831696ED91FC91179720831A96ED91D3
:10044000FC911B972081C7011E960C901E9702C03D
:10045000880F991F0A94E2F7282B20831A96ED91B2
:10046000FC911B972081C7011F960C901F9702C01B
:10047000880F991F0A94E2F7282B20831A96ED9192
:10048000FC911B97808150960C9002C0EE0CFF1CD3
:100490000A94E2F78E2980831F910F91FF90EF90CD
:1004A0000895DC011296ED91FC911397E058FF4FEF
:1004B0002191319180819181281B390B2F773070E8
:1004C000C9010895DC011296ED91FC911397EE5746
:1004D000FF4F2081318192918291E058F040821744
:1004E000930719F42FEF3FEF05C0E20FF31F808150
:1004F000282F30E0C9010895DC011296ED91FC919E
:100500001397DF01AE57BF4F2D913C911197E058E3
:10051000FF4F80819181E058F0408217930719F4D2
:100520002FEF3FEF0BC0E20FF31F80812F5F3F4F94
:100530002F7730702D933C93282F30E0C901089518
:10054000DC011296ED91FC911397EE57FF4F8081DD
:100550009181929382930895FC01A085B1852189B0
:100560008C9190E0022E02C0959587950A94E2F74F
:1005700080FFF6CF0484F585E02D6083089520E1A7
:1005800031E03093300220932F0287E291E0909384
:1005900032028093310285EC90E090933402809394
:1005A000330284EC90E0909336028093350280EC25
:1005B00090E0909338028093370281EC90E0909322
:1005C0003A028093390286EC90E090933C0280934B
:1005D0003B02E4E0E0933D0273E070933E0267E08B
:1005E00060933F0255E05093400241E04093410246
:1005F00030934302209342028BEA91E090934502AC
:10060000809344028DEC90E09093470280934602E1
:100610008CEC90E0909349028093480288EC90E043
:1006200090934B0280934A0289EC90E090934D02A4
:1006300080934C028EEC90E090934F0280934E0298
:10064000E093500270935102609352025093530210
:100650004093540208950E944C010E9494000E940D
:100660006900FDCF0F931F93CF93DF938C01EB01B4
:1006700009C02196D801ED91FC910190F081E02D07
:10068000C801099568816623A1F7DF91CF911F9179
:100690000F910895EF92FF920F931F93CF93DF93E3
:1006A0008C017B01EA010CC0D7016D917D01D8015D
:1006B000ED91FC910190F081E02DC8010995219701
:1006C000209791F7DF91CF911F910F91FF90EF90BD
:1006D0000895DC01ED91FC910280F381E02D0995F4
:1006E00008952F923F924F925F926F927F928F92D6
:1006F0009F92AF92BF92CF92DF92EF92FF920F93B1
:100700001F93DF93CF93CDB7DEB7A0970FB6F894C2
:10071000DEBF0FBECDBF1C016A017B014115510533
:100720006105710549F440E350E060E070E020E0CD
:1007300030E00E940B0456C0882499245401422EB4
:1007400055246624772401E010E00C0F1D1F080DCE
:10075000191DC701B601A30192010E946304F801AB
:1007600060830894811C911CA11CB11CC701B601B7
:10077000A30192010E946304C901DA016C017D01A9
:10078000C114D104E104F104F1F681E0E82EF12C6A
:10079000EC0EFD1EE80CF91C3E010894611C711C56
:1007A000D501C4010197A109B1096C01C818D90884
:1007B00016C0F601EE0DFF1D40814A3010F4405D79
:1007C00001C0495C552747FD5095652F752FC10124
:1007D00020E030E00E940B040894E108F1086E1458
:1007E0007F0439F7A0960FB6F894DEBF0FBECDBFD9
:1007F000CF91DF911F910F91FF90EF90DF90CF90FD
:10080000BF90AF909F908F907F906F905F904F9030
:100810003F902F900895EF92FF920F931F93CF93E5
:10082000DF93EC017A018B012115310541F4E88158
:10083000F9810190F081E02D642F09951BC02A30C9
:100840003105B1F477FF10C04DE250E060E070E098
:1008500020E030E00E940B0410950095F094E094A5
:10086000E11CF11C011D111DCE01B801A7012AE0F8
:100870000E947103DF91CF911F910F91FF90EF9034
:1008800008950F931F938C014DE050E060E070E0FD
:1008900020E030E00E940B04C8014AE050E060E034
:1008A00070E020E030E00E940B041F910F9108954A
:1008B0000F931F938C010E946903C8010E94410499
:1008C0001F910F910895A1E21A2EAA1BBB1BFD01D7
:1008D0000DC0AA1FBB1FEE1FFF1FA217B307E4071F
:1008E000F50720F0A21BB30BE40BF50B661F771F77
:1008F000881F991F1A9469F7609570958095909557
:100900009B01AC01BD01CF01089597FB092E05267F
:100910000ED057FD04D0D7DF0AD0001C38F4509514
:100920004095309521953F4F4F4F5F4F0895F6F713
:1009300090958095709561957F4F8F4F9F4F08954B
:10094000EE0FFF1F0590F491E02D0994F894FFCF6E
:100950004869004920676F742000200000000000F3
:0E096000AC0232034A0351027C026202A00282
:00000001FF
