:100000000C9462000C948A000C948A000C948A0070
:100010000C948A000C948A000C948A000C948A0038
:100020000C948A000C948A000C948A000C948A0028
:100030000C948A000C948A000C948A000C948A0018
:100040000C94B3030C948A000C948A000C948A00DC
:100050000C948A000C948A000C948A000C948A00F8
:100060000C9404020C948A00000000002400270075
:100070002A0000000000250028002B0000000000DE
:1000800023002600290004040404040404040202DA
:100090000202020203030303030301020408102007
:1000A0004080010204081020010204081020000012
:1000B0000007000201000003040600000000000029
:1000C0000000410111241FBECFEFD8E0DEBFCDBF3D
:1000D00011E0A0E0B1E0E6E1FAE002C005900D9287
:1000E000AC31B107D9F711E0ACE1B1E001C01D922C
:1000F000AA3EB107E1F710E0C4ECD0E004C02297BB
:10010000FE010E940505C23CD107C9F70E94F20416
:100110000C9409050C94000004C087E691E00E944D
:10012000DF0087E691E00E94D6000297B4F787E6E9
:1001300091E00E94DF0090931D0180931C010895BF
:1001400064E670E080E090E00E94F80308950F9369
:100150001F9307E611E0C80168E070E00E94D80133
:10016000C8016CE870E00E943701C8016DEB70E0D7
:100170000E943C011F910F9108950F931F93E091EE
:100180006701F091680107E611E00280F381E02D3C
:10019000C80160E071E04BE050E00995C801609152
:1001A0001C010E9489011F910F91089520913F0128
:1001B00030E080913E01281B3109C901089540912A
:1001C0003E0180913F01481718F02FEF3FEF0AC022
:1001D000E42FF0E0E25EFE4F8081282F30E04F5F99
:1001E00040933E01C9010895E0913E0180913F0195
:1001F000E81718F0EFEFFFEF06C0F0E0E25EFE4F09
:100200008081E82FF0E0CF0108950895AC0120919E
:1002100065013091660121153105E1F090913E01B3
:1002200080913F019817B0F090E008C0FA01EA0F02
:10023000FB1F8081A25EBE4F8C939F5FA92FB0E011
:10024000A617B7079CF310923E0160933F01CB01C4
:10025000F90109950895E0916301F09164013097E7
:1002600029F0109260011092610109950895709330
:100270006601609365010895709364016093630162
:10028000089510926A011092690188EE93E0A0E04F
:10029000B0E080936B0190936C01A0936D01B093DB
:1002A0006E0180E191E09093680180936701089569
:1002B000CF92DF92EF92FF920F931F93CF93DF9332
:1002C0007C016B018A01809162018823A1F0C0E06A
:1002D000D0E00DC0D701ED91FC91D601AC0FBD1F50
:1002E0000190F081E02DC7016C9109952196C0170E
:1002F000D10780F304C0CB01642F0E94DF01C80145
:10030000DF91CF911F910F91FF90EF90DF90CF90F1
:100310000895DF93CF930F92CDB7DEB7FC016983C9
:10032000809162018823C9F080916101803238F0A8
:1003300081E090E09383828320E030E015C08091DB
:100340006001E82FF0E0E05CFE4F998190838F5FC1
:10035000809360018093610105C0CE01019661E048
:100360000E94DF0121E030E0C9010F90CF91DF91C1
:10037000089510923E0110923F0110926001109278
:1003800061010E94950308950F931F938C01862F9E
:100390000E94DB018BE291E00E94FF0186E091E088
:1003A0000E94FA01C8010E94B9011F910F9108959E
:1003B0000E94C4010895880F8093BA000895482FC1
:1003C000613210F081E0089580917301843011F062
:1003D00082E008956093BE01ADE9B1E0842F9C01F5
:1003E000F90102C081918D938E2F841B8617D0F363
:1003F00080E0089590937A01809379010895909315
:1004000078018093770108951F920F920FB60F9293
:1004100011242F933F934F935F936F937F938F9309
:100420009F93AF93BF93EF93FF938091B90090E0B8
:10043000887F90708036910509F4F2C0813691056D
:10044000CCF58832910509F47BC089329105B4F46A
:100450008031910509F46FC0813191053CF400971A
:1004600009F447C1089709F04FC165C0883191056B
:1004700009F466C0809709F047C182C080349105B5
:1004800009F4A4C08134910544F48033910509F442
:1004900082C0C89709F038C189C08035910509F438
:1004A00089C08835910509F496C08834910509F012
:1004B0002BC1AEC08839910509F413C18939910562
:1004C000ECF48837910509F4ABC0893791054CF4F9
:1004D0008836910509F4A4C08037910509F014C14C
:1004E0009FC08838910509F4FCC08039910509F452
:1004F0009DC08038910509F007C198C0803B9105E7
:1005000009F4C6C0813B91054CF4803A910509F489
:100510009FC0883A910509F0F7C0BAC0803C9105A8
:1005200009F4E3C0883C910509F4DFC0883B9105DC
:1005300009F0EAC0C2C0809174018093BB00CFC0B3
:1005400090919B0180919C01981768F490919B0178
:10055000E92FF0E0E558FE4F80818093BB009F5F5C
:1005600090939B01BCC080917501882309F44BC016
:1005700085ED8093BC008091BC0084FDFCCFC2C09F
:1005800080E28093E00185ED8093BC008091BC0007
:1005900084FDFCCFB7C080E38093E00185ED8093BC
:1005A000BC008091BC0084FDFCCFACC088E380938C
:1005B000E0019BC080919B019091BB00E82FF0E08F
:1005C000E558FE4F90838F5F80939B0190919B0134
:1005D00080919C0182C080919B019091BB00E82F8B
:1005E000F0E0E558FE4F90838F5F80939B018091F0
:1005F0007501882341F085ED8093BC008091BC009B
:1006000084FDFCCF7FC081E08093760184EA6EC0D8
:1006100085ED8093BC008091BC0084FDFCCF72C04E
:1006200083E0809373011092DF0159C08091DF0154
:10063000803208F056C08091DF019091BB00E82F16
:10064000F0E0E154FE4F90838F5F8093DF0147C05D
:100650008091DF01803230F4E091DF01F0E0E1547D
:10066000FE4F108285ED8093BC008091BC0084FD1C
:10067000FCCF109273016091DF01E0917901F0915C
:100680007A018FEB91E070E009951092DF012DC0A7
:1006900084E0809373011092BD011092BE01E0913D
:1006A0007701F091780109958091BE01882329F4A2
:1006B00081E08093BE0110929D019091BD01E92FD0
:1006C000F0E0E356FE4F80818093BB009F5F9093E4
:1006D000BD019091BD018091BE01981710F485EC89
:1006E00001C085E88093BC000FC085EC8093BC00FE
:1006F00009C01092E00185ED8093BC008091BC00A0
:1007000084FDFCCF10927301FF91EF91BF91AF91E7
:100710009F918F917F916F915F914F913F912F9119
:100720000F900FBE0F901F9018951092730181E0EB
:10073000809375011092760182E161E00E949D0430
:1007400083E161E00E949D04E9EBF0E080818E7F0F
:10075000808380818D7F80838CE58093B80085E4E1
:100760008093BC0008951F920F920FB60F92112430
:100770002F933F938F939F93AF93BF938091E50106
:100780009091E601A091E701B091E8013091E90173
:10079000232F2A592D3720F02D570196A11DB11D69
:1007A0002093E9018093E5019093E601A093E7018E
:1007B000B093E8018091E1019091E201A091E30101
:1007C000B091E4010196A11DB11D8093E1019093C8
:1007D000E201A093E301B093E401BF91AF919F9137
:1007E0008F913F912F910F900FBE0F901F901895F2
:1007F000EF92FF920F931F937B018C019FB7F894A8
:100800002091E1013091E2014091E3015091E40136
:1008100086B5A89B06C08F3F21F02F5F3F4F4F4FFB
:100820005F4F9FBF542F432F322F2227280F311D98
:10083000411D511DDA01C901880F991FAA1FBB1F55
:10084000820F931FA41FB51FBC0132C09FB7F8943D
:100850002091E1013091E2014091E3015091E401E6
:1008600086B5A89B06C08F3F21F02F5F3F4F4F4FAB
:100870005F4F9FBF542F432F322F2227280F311D48
:10088000411D511DDA01C901880F991FAA1FBB1F05
:10089000820F931FA41FB51F861B970B885E934082
:1008A000A8F20894E108F1080109110968517C4F88
:1008B000E114F1040105110549F61F910F91FF9014
:1008C000EF900895789484B5826084BD84B581608A
:1008D00084BD85B5826085BD85B5816085BDEEE648
:1008E000F0E0808181608083E1E8F0E01082808127
:1008F00082608083808181608083E0E8F0E0808195
:1009000081608083E1EBF0E0808184608083E0EBB4
:10091000F0E0808181608083EAE7F0E0808184609C
:1009200080838081826080838081816080838081F8
:10093000806880831092C1000895482F50E0CA015A
:1009400082559F4FFC012491CA0186569F4FFC019E
:1009500094914A575F4FFA013491332309F440C010
:10096000222351F1233071F0243028F42130A1F0FA
:10097000223011F514C02630B1F02730C1F02430F8
:10098000D9F404C0809180008F7703C080918000EB
:100990008F7D8093800010C084B58F7702C084B5AE
:1009A0008F7D84BD09C08091B0008F7703C0809196
:1009B000B0008F7D8093B000E32FF0E0EE0FFF1FBB
:1009C000EE58FF4FA591B4912FB7F894662321F408
:1009D0008C919095892302C08C91892B8C932FBF89
:1009E00008950895CF93DF930E9462040E94F1045A
:1009F0000E94A700C0E0D0E00E94A0002097E1F391
:100A00000E940000F9CFEE0FFF1F0590F491E02D3A
:060A10000994F894FFCFE9
:100A16004920676F74207820697320000000000069
:0C0A260089015801D600DF00F400050132
:00000001FF
